{
  "abi": [
    {
      "inputs": [
        {
          "internalType": "address",
          "name": "_axiomV2QueryAddress",
          "type": "address"
        },
        {
          "internalType": "uint64",
          "name": "_callbackSourceChainId",
          "type": "uint64"
        },
        {
          "internalType": "bytes32",
          "name": "_axiomCallbackQuerySchema",
          "type": "bytes32"
        }
      ],
      "stateMutability": "nonpayable",
      "type": "constructor"
    },
    {
      "anonymous": false,
      "inputs": [
        {
          "indexed": false,
          "internalType": "address",
          "name": "token",
          "type": "address"
        }
      ],
      "name": "AirdropTokenAddressUpdated",
      "type": "event"
    },
    {
      "anonymous": false,
      "inputs": [
        {
          "indexed": false,
          "internalType": "bytes32",
          "name": "axiomCallbackQuerySchema",
          "type": "bytes32"
        }
      ],
      "name": "AxiomCallbackQuerySchemaUpdated",
      "type": "event"
    },
    {
      "anonymous": false,
      "inputs": [
        {
          "indexed": true,
          "internalType": "uint64",
          "name": "sourceChainId",
          "type": "uint64"
        },
        {
          "indexed": false,
          "internalType": "address",
          "name": "callerAddr",
          "type": "address"
        },
        {
          "indexed": true,
          "internalType": "bytes32",
          "name": "querySchema",
          "type": "bytes32"
        },
        {
          "indexed": true,
          "internalType": "bytes32",
          "name": "queryHash",
          "type": "bytes32"
        }
      ],
      "name": "AxiomV2Call",
      "type": "event"
    },
    {
      "anonymous": false,
      "inputs": [
        {
          "indexed": true,
          "internalType": "address",
          "name": "user",
          "type": "address"
        },
        {
          "indexed": true,
          "internalType": "bytes32",
          "name": "queryHash",
          "type": "bytes32"
        },
        {
          "indexed": false,
          "internalType": "uint256",
          "name": "numTokens",
          "type": "uint256"
        },
        {
          "indexed": false,
          "internalType": "bytes32[]",
          "name": "axiomResults",
          "type": "bytes32[]"
        }
      ],
      "name": "ClaimAirdrop",
      "type": "event"
    },
    {
      "anonymous": false,
      "inputs": [
        {
          "indexed": true,
          "internalType": "address",
          "name": "user",
          "type": "address"
        },
        {
          "indexed": false,
          "internalType": "string",
          "name": "error",
          "type": "string"
        }
      ],
      "name": "ClaimAirdropError",
      "type": "event"
    },
    {
      "anonymous": false,
      "inputs": [
        {
          "indexed": true,
          "internalType": "address",
          "name": "previousOwner",
          "type": "address"
        },
        {
          "indexed": true,
          "internalType": "address",
          "name": "newOwner",
          "type": "address"
        }
      ],
      "name": "OwnershipTransferred",
      "type": "event"
    },
    {
      "inputs": [],
      "name": "SWAP_EVENT_SCHEMA",
      "outputs": [
        {
          "internalType": "bytes32",
          "name": "",
          "type": "bytes32"
        }
      ],
      "stateMutability": "view",
      "type": "function"
    },
    {
      "inputs": [],
      "name": "UNI_UNIV_ROUTER_ADDR",
      "outputs": [
        {
          "internalType": "address",
          "name": "",
          "type": "address"
        }
      ],
      "stateMutability": "view",
      "type": "function"
    },
    {
      "inputs": [],
      "name": "axiomCallbackQuerySchema",
      "outputs": [
        {
          "internalType": "bytes32",
          "name": "",
          "type": "bytes32"
        }
      ],
      "stateMutability": "view",
      "type": "function"
    },
    {
      "inputs": [
        {
          "internalType": "uint64",
          "name": "sourceChainId",
          "type": "uint64"
        },
        {
          "internalType": "address",
          "name": "callerAddr",
          "type": "address"
        },
        {
          "internalType": "bytes32",
          "name": "querySchema",
          "type": "bytes32"
        },
        {
          "internalType": "bytes32",
          "name": "queryHash",
          "type": "bytes32"
        },
        {
          "internalType": "bytes32[]",
          "name": "axiomResults",
          "type": "bytes32[]"
        },
        {
          "internalType": "bytes",
          "name": "callbackExtraData",
          "type": "bytes"
        }
      ],
      "name": "axiomV2Callback",
      "outputs": [],
      "stateMutability": "nonpayable",
      "type": "function"
    },
    {
      "inputs": [],
      "name": "axiomV2QueryAddress",
      "outputs": [
        {
          "internalType": "address",
          "name": "",
          "type": "address"
        }
      ],
      "stateMutability": "view",
      "type": "function"
    },
    {
      "inputs": [],
      "name": "callbackSourceChainId",
      "outputs": [
        {
          "internalType": "uint64",
          "name": "",
          "type": "uint64"
        }
      ],
      "stateMutability": "view",
      "type": "function"
    },
    {
      "inputs": [
        {
          "internalType": "address",
          "name": "",
          "type": "address"
        }
      ],
      "name": "hasClaimed",
      "outputs": [
        {
          "internalType": "bool",
          "name": "",
          "type": "bool"
        }
      ],
      "stateMutability": "view",
      "type": "function"
    },
    {
      "inputs": [],
      "name": "owner",
      "outputs": [
        {
          "internalType": "address",
          "name": "",
          "type": "address"
        }
      ],
      "stateMutability": "view",
      "type": "function"
    },
    {
      "inputs": [
        {
          "internalType": "address",
          "name": "",
          "type": "address"
        }
      ],
      "name": "querySubmitted",
      "outputs": [
        {
          "internalType": "bool",
          "name": "",
          "type": "bool"
        }
      ],
      "stateMutability": "view",
      "type": "function"
    },
    {
      "inputs": [],
      "name": "renounceOwnership",
      "outputs": [],
      "stateMutability": "nonpayable",
      "type": "function"
    },
    {
      "inputs": [],
      "name": "token",
      "outputs": [
        {
          "internalType": "contract IERC20",
          "name": "",
          "type": "address"
        }
      ],
      "stateMutability": "view",
      "type": "function"
    },
    {
      "inputs": [
        {
          "internalType": "address",
          "name": "newOwner",
          "type": "address"
        }
      ],
      "name": "transferOwnership",
      "outputs": [],
      "stateMutability": "nonpayable",
      "type": "function"
    },
    {
      "inputs": [
        {
          "internalType": "address",
          "name": "_token",
          "type": "address"
        }
      ],
      "name": "updateAirdropToken",
      "outputs": [],
      "stateMutability": "nonpayable",
      "type": "function"
    },
    {
      "inputs": [
        {
          "internalType": "bytes32",
          "name": "_axiomCallbackQuerySchema",
          "type": "bytes32"
        }
      ],
      "name": "updateCallbackQuerySchema",
      "outputs": [],
      "stateMutability": "nonpayable",
      "type": "function"
    }
  ],
  "bytecode": {
    "object": "0x60a060405234801561001057600080fd5b50604051610df8380380610df883398101604081905261002f916100c9565b6001600160a01b03831660805261004533610079565b600080546001600160401b03909316600160a01b02600160a01b600160e01b03199093169290921790915560015550610124565b600080546001600160a01b038381166001600160a01b0319831681178455604051919092169283917f8be0079c531659141344cd1fd0a4f28419497f9722a3daafe3b4186f6b6457e09190a35050565b6000806000606084860312156100de57600080fd5b83516001600160a01b03811681146100f557600080fd5b60208501519093506001600160401b038116811461011257600080fd5b80925050604084015190509250925092565b608051610cb26101466000396000818161014201526102df0152610cb26000f3fe608060405234801561001057600080fd5b50600436106100ea5760003560e01c80638da5cb5b1161008c578063cd1cd72511610066578063cd1cd7251461022c578063f2fde38b14610243578063f790c7eb14610256578063fc0c546a1461027d57600080fd5b80638da5cb5b146101e5578063a34c1eb4146101f6578063ab72fc091461020957600080fd5b806351b17b29116100c857806351b17b291461017c578063715018a61461018f57806373b2e80e14610197578063863af3cf146101ca57600080fd5b8063034606e0146100ef5780630a50ec5c146101045780632a75d3be1461013d575b600080fd5b6101026100fd366004610a84565b610290565b005b60005461011f90600160a01b900467ffffffffffffffff1681565b60405167ffffffffffffffff90911681526020015b60405180910390f35b6101647f000000000000000000000000000000000000000000000000000000000000000081565b6040516001600160a01b039091168152602001610134565b61010261018a366004610b02565b6102d4565b6101026103dc565b6101ba6101a5366004610be1565b60036020526000908152604090205460ff1681565b6040519015158152602001610134565b610164733fc91a3afd70395cd496c647d5a6cc9d4b2b7fad81565b6000546001600160a01b0316610164565b610102610204366004610be1565b6103f0565b6101ba610217366004610be1565b60026020526000908152604090205460ff1681565b61023560015481565b604051908152602001610134565b610102610251366004610be1565b610446565b6102357fc42079f94a6350d7e6235f29174924f928cc2ac818eb64fed8004e115fbcca6781565b600454610164906001600160a01b031681565b6102986104bf565b60018190556040518181527f215a17e0015e11cebc3087027513f0b70572c3b3341a76ef38fbcbbb8193c6ae906020015b60405180910390a150565b336001600160a01b037f0000000000000000000000000000000000000000000000000000000000000000161461036b5760405162461bcd60e51b815260206004820152603160248201527f4178696f6d5632436c69656e743a2063616c6c6572206d757374206265206178604482015270696f6d563251756572794164647265737360781b60648201526084015b60405180910390fd5b6040516001600160a01b03881681528590879067ffffffffffffffff8b16907f8c4d7c8c39bd8567a2e06cd74f2e95db120e4aeeb5092fca49fb9f3ea13f0fc19060200160405180910390a46103c2888888610519565b6103d288888888888888886105e3565b5050505050505050565b6103e46104bf565b6103ee6000610a34565b565b6103f86104bf565b600480546001600160a01b0319166001600160a01b0383169081179091556040519081527f3d74e308a5601bae6228e9545413c210aad9d550ccd35b1f55805a9bd2cc6dfb906020016102c9565b61044e6104bf565b6001600160a01b0381166104b35760405162461bcd60e51b815260206004820152602660248201527f4f776e61626c653a206e6577206f776e657220697320746865207a65726f206160448201526564647265737360d01b6064820152608401610362565b6104bc81610a34565b50565b6000546001600160a01b031633146103ee5760405162461bcd60e51b815260206004820181905260248201527f4f776e61626c653a2063616c6c6572206973206e6f7420746865206f776e65726044820152606401610362565b60005467ffffffffffffffff848116600160a01b909204161461058d5760405162461bcd60e51b815260206004820152602660248201527f4178696f6d56323a2063616c6c657220736f75726365436861696e4964206d696044820152650e6dac2e8c6d60d31b6064820152608401610362565b60015481146105de5760405162461bcd60e51b815260206004820152601e60248201527f4178696f6d56323a20717565727920736368656d61206d69736d6174636800006044820152606401610362565b505050565b6001600160a01b03871660009081526003602052604090205460ff16156106725760405162461bcd60e51b815260206004820152603960248201527f4175746f6e6f6d6f75732041697264726f703a20557365722068617320616c7260448201527f6561647920636c61696d656420746869732061697264726f70000000000000006064820152608401610362565b60008484600081811061068757610687610c03565b9050602002013590506000858560018181106106a5576106a5610c03565b9050602002013560001c90506000868660028181106106c6576106c6610c03565b9050602002013560001c90506000878760038181106106e7576106e7610c03565b60200291909101359150507fc42079f94a6350d7e6235f29174924f928cc2ac818eb64fed8004e115fbcca6784146107725760405162461bcd60e51b815260206004820152602860248201527f4175746f6e6f6d6f75732041697264726f703a20496e76616c6964206576656e6044820152677420736368656d6160c01b6064820152608401610362565b8a6001600160a01b0316836001600160a01b0316146107ee5760405162461bcd60e51b815260206004820152603260248201527f4175746f6e6f6d6f75732041697264726f703a20496e76616c69642075736572604482015271081859191c995cdcc8199bdc88195d995b9d60721b6064820152608401610362565b628954408263ffffffff1610156108895760405162461bcd60e51b815260206004820152605360248201527f4175746f6e6f6d6f75732041697264726f703a20426c6f636b206e756d62657260448201527f20666f72207472616e73616374696f6e2072656365697074206d757374206265606482015272101c9818181818181037b91033b932b0ba32b960691b608482015260a401610362565b6001600160a01b038116733fc91a3afd70395cd496c647d5a6cc9d4b2b7fad146109415760405162461bcd60e51b815260206004820152605860248201527f4175746f6e6f6d6f75732041697264726f703a205472616e73616374696f6e2060448201527f60746f602061646472657373206973206e6f742074686520556e69737761702060648201527f556e6976657273616c20526f7574657220616464726573730000000000000000608482015260a401610362565b6001600160a01b03808c1660008181526003602052604090819020805460ff1916600117905560048054915163a9059cbb60e01b81529081019290925268056bc75e2d631000006024830181905292169063a9059cbb906044016020604051808303816000875af11580156109ba573d6000803e3d6000fd5b505050506040513d601f19601f820116820180604052508101906109de9190610c19565b50898c6001600160a01b03167fb6cdd515ae6bc7c835f5b9b67a78fe370d2fa71ebb6c7a49595cb3f84988d35e838c8c604051610a1d93929190610c3b565b60405180910390a350505050505050505050505050565b600080546001600160a01b038381166001600160a01b0319831681178455604051919092169283917f8be0079c531659141344cd1fd0a4f28419497f9722a3daafe3b4186f6b6457e09190a35050565b600060208284031215610a9657600080fd5b5035919050565b80356001600160a01b0381168114610ab457600080fd5b919050565b60008083601f840112610acb57600080fd5b50813567ffffffffffffffff811115610ae357600080fd5b602083019150836020828501011115610afb57600080fd5b9250929050565b60008060008060008060008060c0898b031215610b1e57600080fd5b883567ffffffffffffffff8082168214610b3757600080fd5b819950610b4660208c01610a9d565b985060408b0135975060608b0135965060808b0135915080821115610b6a57600080fd5b818b0191508b601f830112610b7e57600080fd5b813581811115610b8d57600080fd5b8c60208260051b8501011115610ba257600080fd5b6020830196508095505060a08b0135915080821115610bc057600080fd5b50610bcd8b828c01610ab9565b999c989b5096995094979396929594505050565b600060208284031215610bf357600080fd5b610bfc82610a9d565b9392505050565b634e487b7160e01b600052603260045260246000fd5b600060208284031215610c2b57600080fd5b81518015158114610bfc57600080fd5b838152604060208201819052810182905260006001600160fb1b03831115610c6257600080fd5b8260051b808560608501379190910160600194935050505056fea26469706673582212200435c0769374e25842c21357bca59c14d08be741e1733af1333204c70026d26d64736f6c63430008130033",
    "linkReferences": {}
  },
  "methodIdentifiers": {
    "SWAP_EVENT_SCHEMA()": "f790c7eb",
    "UNI_UNIV_ROUTER_ADDR()": "863af3cf",
    "axiomCallbackQuerySchema()": "cd1cd725",
    "axiomV2Callback(uint64,address,bytes32,bytes32,bytes32[],bytes)": "51b17b29",
    "axiomV2QueryAddress()": "2a75d3be",
    "callbackSourceChainId()": "0a50ec5c",
    "hasClaimed(address)": "73b2e80e",
    "owner()": "8da5cb5b",
    "querySubmitted(address)": "ab72fc09",
    "renounceOwnership()": "715018a6",
    "token()": "fc0c546a",
    "transferOwnership(address)": "f2fde38b",
    "updateAirdropToken(address)": "a34c1eb4",
    "updateCallbackQuerySchema(bytes32)": "034606e0"
  },
  "id": 25
}